:1000000050C100007EC100007CC100007AC1000028
:1000100078C1000076C1000074C1000072C1000008
:1000200070C100006EC100006CC100006AC1000018
:1000300068C1000066C1000064C1000062C1000028
:1000400060C100005EC100005CC100005AC1000038
:1000500058C1000056C1000054C1000056C3000042
:1000600050C100001CC30000F1C200004AC10000E2
:1000700048C1000094C3000044C1000042C1000018
:1000800040C100003EC100003CC100003AC1000078
:1000900038C1000036C1000034C1000032C1000088
:1000A00030C100002EC100002CC100002AC1000098
:1000B00028C1000026C1000024C1000022C10000A8
:1000C00020C100001EC100001CC100001AC10000B8
:1000D00018C1000016C1000014C1000012C10000C8
:1000E00010C1000000407A10F35A00A0724E1809A7
:1000F0000010A5D4E80000E87648170000E40B548F
:10010000020000CA9A3B000000E1F505000080965D
:100110009800000040420F000000A086010000008F
:10012000102700000000E803000000006400000049
:1001300000000A00000000000100000000002C7612
:10014000D888DC674F0823DFC1DFAE59E1B1B7962D
:10015000E5E3E453C63AE651997696E8E6C284268A
:10016000EB898C9B62ED407C6FFCEFBC9C9F40F266
:10017000BAA56FA5F490055A2AF75C936B6CF967E2
:100180006DC11BFCE0E40D47FEF520E6B500D0EDA7
:10019000902E0300943577050080841E080000200F
:1001A0004E0A000000C80C333333330F986E1283AD
:1001B0001141EF8D2114893BE65516CFFEE6DB1881
:1001C000D1844B381BF77C1D901DA4BBE424203246
:1001D00084725E228100C9F124ECA1E53D27000074
:1001E0002200250028002B002E00310034000201DF
:1001F0000000050108010B01000021002400270078
:100200002A002D0030003300010100000401070125
:100210000A0105050505070508080808020202028B
:100220000A0A080804040404010101010101010192
:100230000303030303030303040707070C0C0C0C5D
:100240000C0C0C0C02020202060606060606060646
:100250000B0B0B0B0B0B0B0B0102102020080810D3
:100260002040102040800201020108040201010226
:1002700004081020408080402010080402018004FF
:10028000020180402010080402010804020101025A
:100290000408102040800102040810204080EC0374
:1002A0001D0711241FBECFEFD1E2DEBFCDBF00E09E
:1002B0000CBF22E0AAE2B2E001C01D92AF3DB2073E
:1002C000E1F712E0A0E0B2E0E8E7F7E100E00BBF01
:1002D00002C007900D92AA32B107D9F711E0C0E52C
:1002E000D1E000E006C021970109802FFE010E94A5
:1002F0009209CF34D10780E00807A9F7D0D20C9437
:10030000AB0B7ECE0895AF92BF92CF92DF92EF9269
:10031000FF920F931F93CF93DF936C017B018B01AF
:10032000040F151FEB015E01AE18BF08C017D107FF
:1003300059F06991D601ED91FC910190F081E02D89
:10034000C6011995892B79F7C501DF91CF911F91CE
:100350000F91FF90EF90DF90CF90BF90AF900895F6
:10036000FC01538D448D252F30E0842F90E0821BBB
:10037000930B541710F0CF96089501970895FC0140
:10038000918D828D981761F0A28DAE0FBF2FB11D98
:100390005D968C91928D9F5F9F73928F90E00895F0
:1003A0008FEF9FEF0895FC01918D828D981731F0AA
:1003B000828DE80FF11D858D90E008958FEF9FEFFE
:1003C0000895FC01918D228D892F90E0805C9F4FD4
:1003D000821B91098F739927089588E392E0F1DFDA
:1003E00021E0892B09F420E0822F0895FC01A48DDF
:1003F000A80FB92FB11DA35ABF4F2C91848D90E047
:1004000001968F739927848FA689B7892C93A08929
:10041000B1898C91837080648C93938D848D9813B3
:1004200006C00288F389E02D80818F7D8083089546
:10043000EF92FF920F931F93CF93DF93EC0181E034
:10044000888F9B8D8C8D98131AC0E889F9898081DB
:1004500085FF15C09FB7F894EE89FF896083E8890E
:10046000F98980818370806480839FBF81E090E000
:10047000DF91CF911F910F91FF90EF900895F62E8D
:100480000B8D10E00F5F1F4F0F731127E02E8C8D27
:100490008E110BC00FB607FCFACFE889F98980816D
:1004A00085FFF5CFCE01A2DFF2CFEB8DEC0FFD2F54
:1004B000F11DE35AFF4FF0829FB7F8940B8FEA8942
:1004C000FB8980818062D0CFCF93DF93EC01888D50
:1004D0008823B1F0AA89BB89E889F9898C9185FDC7
:1004E00003C0808186FD0CC00FB607FCF7CF8C914E
:1004F00085FFF2CF808185FFEDCFCE0177DFEACF98
:10050000DF91CF91089580E090E0892B21F065DFA5
:1005100081110E94000080E090E0892B49F080E08A
:1005200090E0892B29F00E94000081110E940000B8
:1005300080E090E0892B49F080E090E0892B29F061
:100540000E94000081110E94000080E090E0892B51
:1005500049F080E090E0892B29F00E940000811191
:100560000C94000008953FB7F89480912F02909169
:100570003002A0913102B091320226B5A89B05C08D
:100580002F3F19F00196A11DB11D3FBFBA2FA92F12
:10059000982F8827BC01CD01620F711D811D911D0F
:1005A00042E0660F771F881F991F4A95D1F708957B
:1005B000CF92DF92EF92FF92D6DF6B017C01D3DF07
:1005C0006C197D098E099F09683E7340810591056C
:1005D000B0F3FF90EF90DF90CF900895CF93DF932B
:1005E000EC0188819981009709F040D7198218821F
:1005F0001D821C821B821A82DF91CF9108950F9376
:100600001F93CF93DF93EC0188819981009759F074
:100610002A813B812617370730F081E0DF91CF91A7
:100620001F910F9108958B016F5F7F4FA8D700979F
:1006300059F0998388831B830A832C813D81232B66
:1006400061F7FC011082E9CF80E0E8CF1F920F92A2
:100650000FB60F9211240BB60F922F933F934F9327
:100660005F936F937F938F939F93AF93BF93EF931A
:10067000FF9388E392E0BADEFF91EF91BF91AF91D3
:100680009F918F917F916F915F914F913F912F91AA
:100690000F900BBE0F900FBE0F901F9018951F92DA
:1006A0000F920FB60F9211240BB60F922F938F93C8
:1006B0009F93EF93FF93E0914802F091490280816C
:1006C000E0914E02F0914F0282FD1DC09081809119
:1006D00051028F5F8F7320915202821741F0E09197
:1006E0005102F0E0E85CFD4F958F80935102FF913D
:1006F000EF919F918F912F910F900BBE0F900FBE96
:100700000F901F9018958081F2CF1F920F920FB615
:100710000F9211242F933F938F939F93AF93BF9387
:1007200080912B0290912C02A0912D02B0912E026B
:1007300030912A0223E0230F2D3758F50196A11D91
:10074000B11D20932A0280932B0290932C02A09338
:100750002D02B0932E0280912F0290913002A09131
:100760003102B09132020196A11DB11D80932F027A
:1007700090933002A0933102B0933202BF91AF91B7
:100780009F918F913F912F910F900FBE0F901F90CF
:10079000189526E8230F0296A11DB11DD2CF1F92F6
:1007A0000F920FB60F9211248F939F938091780030
:1007B000909179009F918F910F900FBE0F901F9095
:1007C00018951F920F920FB60F9211245A980F90FE
:1007D0000FBE0F901F90189510923B0210923A0294
:1007E00088EE93E0A0E0B0E080933C0290933D025D
:1007F000A0933E02B0933F028BE192E090933902C6
:100800008093380285EC90E09093450280934402F7
:1008100084EC90E0909347028093460280EC90E055
:10082000909349028093480281EC90E090934B02B0
:1008300080934A0282EC90E090934D0280934C02A8
:1008400086EC90E090934F0280934E0210925102FA
:100850001092520210925302109254021092D60239
:100860001092D5021092D8021092D7021092DA029A
:100870001092D90270E060E085ED92E0C0DE811157
:1008800003C085ED92E0AACE1092DA021092D9024E
:1008900069E272E08091D5029091D60255C7CF935C
:1008A000DF93CDB7DEB7AB970FB6F894DEBF0FBEC0
:1008B000CDBF789484B5826084BD84B5816084BDE9
:1008C00085B5826085BD85B5816085BD80916E00EE
:1008D000816080936E00109281008091810082601F
:1008E000809381008091810081608093810080915C
:1008F00080008160809380008091B100846080934B
:10090000B1008091B00081608093B000809191002F
:10091000826080939100809191008160809391002A
:10092000809190008160809390008091A10082600E
:100930008093A1008091A10081608093A1008091AB
:10094000A00081608093A00080912101826080934B
:1009500021018091210181608093210180912001FA
:1009600081608093200180917A00846080937A0076
:1009700080917A00826080937A0080917A00816011
:1009800080937A0080917A00806880937A00109238
:10099000C10087E08AB988EF8BB9E0914802F091F5
:1009A000490282E08083E0914402F0914502108286
:1009B000E0914602F09147028FEC80831092500242
:1009C000E0914C02F0914D0286E08083E0914A0272
:1009D000F0914B02808180618083E0914A02F09126
:1009E0004B02808188608083E0914A02F0914B0243
:1009F000808180688083E0914A02F0914B0280817F
:100A00008F7D80838091C10084648093C100809138
:100A1000C00081608093C000CBDD8BE780933702FC
:100A200017B88EEF88B980E480937C008EE88093BD
:100A30007A00EEE8F2E02491E8E4F2E08491882381
:100A4000C9F090E0880F991FFC01E850FE4F4591D6
:100A50005491FC01E252FE4FA591B4919FB7F894D6
:100A6000FA0180812095822380838C91E22FE823F4
:100A7000EC939FBF22242394312C88E392E0A1DCE5
:100A8000892BA9F088E392E07ADC90910002992307
:100A900081F09091370289130AC010920002F1E0B0
:100AA000F09336028091C0008E7F8093C0002BDDD2
:100AB000E4CF909136029923D1F310923602813B14
:100AC000B1F78091340290913502049721F410928D
:100AD00035021092340221E0209300025A9A80914C
:100AE0007A00806480937A0063DDE0913402F091B3
:100AF0003502EE0FFF1FEE0FFF1FE95FFD4F608114
:100B00007181828193814DB65EB61BA21AA21DA28D
:100B10001CA21FA21EA28E010F5F1F4F22E044E005
:100B200094D17C01009771F0FC0101900020E9F75D
:100B300031978F01081B190BB801CE0182965FDD3A
:100B4000811181C0CE01829649DD8091D5029091BC
:100B5000D602009709F47FC06AA17BA161157105D7
:100B600009F478C04091D7025091D8022EA13FA13C
:100B70004217530708F46EC0E7D58EA19FA190934A
:100B8000DA028093D9021FA21EA28AA19BA100971C
:100B900009F06CD48090D9029090DA0234013FEFD2
:100BA000631A730AC40102964DB75EB7481B590B0E
:100BB0000FB6F8945EBF0FBE4DBF2DB73EB72F5F87
:100BC0003F4FC301F90197FF5DC06091D50270915D
:100BD000D60250E040E09FEFAAE9BAE81AE70AE639
:100BE0008AE5F82EEAE4EE2EFAE3DF2E8AE2C82E3A
:100BF000EAE1BE2EFAE0AF2E4815590509F47EC091
:100C0000FB01E40FF51F6115710521F41092330209
:100C1000E3E3F2E0E081EE52EC3008F03AC00E2E51
:100C2000000CFF0B8827E95EF94F8F4F7BC37906D5
:100C3000490645064C06510656065B0660066506E3
:100C40006A066F0674061FA30EA3B7018AA19BA1B3
:100C50007BD57BCF0BD48AA19BA19093D6028093A6
:100C6000D5028CA19DA19093D8028093D7028EA12A
:100C70009FA19093DA028093D9021BA21AA21DA20F
:100C80001CA281CF119201979ECFF901E40FF51FAD
:100C9000A0824F5F5F4FB0CFF901E40FF51FB08224
:100CA000F8CFF901E40FF51FC082F3CFF901E40F8B
:100CB000F51FD082EECFF901E40FF51FE082E9CFF6
:100CC000F901E40FF51FF082E4CFF901E40FF51FFD
:100CD0000083DFCFF901E40FF51F1083DACFF901AC
:100CE000E40FF51FB083D5CFF901E40FF51FA08302
:100CF000D0CFF901E40FF51F9083CBCF6DB77EB74E
:100D0000681979090FB6F8947EBF0FBE6DBF8DB715
:100D10009EB701969BA78AA78901DC01A80DB91D82
:100D2000B9A7A8A77901DC01E8A5F9A5AE17BF0707
:100D300031F1F701A1907F0170E060E050E040E008
:100D4000B12C6501042E02C0D594C7940A94E2F731
:100D5000C0FE0EC0F7E0CF2ED12CC41AD50AF10187
:100D600002C0EE0FFF1FCA94E2F76F016E2B7D29C0
:100D70004F5F5F4F4830510521F76D93D5CF0596F2
:100D800050E040E0AAA5BBA56D91BBA7AAA7562736
:100D900068E070E0DA01440F551FB7FF02C0B5EDFF
:100DA0004B2761507109B1F7EAA5FBA58E179F0784
:100DB00049F770E060E090E080E0F101082E02C0A9
:100DC000EE0FFF1F0A94E2F7E423F523EF2B69F0FF
:100DD000EFE0F0E0E81BF90BD10102C0AA0FBB1F46
:100DE000EA95E2F7FD016A2B7F2B01968031910590
:100DF00021F7F901E80DF91D7083F901E60DF71DE2
:100E000060837901B7E0EB0EF11CF80161918F016D
:100E100088E392E00DDBE016F106B9F70FB6F8941F
:100E20005EBE0FBE4DBE8091340290913502019698
:100E300090933502809334023ACE8091D5029091FE
:100E4000D602009709F012C30895EF920F931F93F3
:100E5000CF93DF93E80134E047FD34E1042E000C2A
:100E6000550B57FF03C0519541955109E32E022FB1
:100E7000242FAE0107D0CE01DF91CF911F910F91AA
:100E8000EF9008958F929F92AF92BF92CF92DF9290
:100E9000EF92FF920F931F93CF93DF9300D000D078
:100EA00000D0CDB7DEB76A01F22EB02E102FFBE3D3
:100EB000AF2EA01608F41BE31F5F012F27E0AE0141
:100EC0004F5F5F4F57D1BC018981982F9970913046
:100ED00009F44EC09BE2E1FC04C09E2D9170E0FC41
:100EE00049C05E2D5071E82FE87083FF55C084E043
:100EF000911101C083E0EF2DE81B8F1508F0E0E0B1
:100F0000D6018E2F20E25523C9F1992329F0D6016D
:100F10009C93C60101966C0196012D5F3F4FE2FE46
:100F200033C08EE4D6018C9391E411969C93119773
:100F300012968C93D9018E2F90E281112AC0E20F74
:100F4000F32FF11D10828EEF9FEF29960FB6F894C4
:100F5000DEBF0FBECDBFDF91CF911F910F91FF90EC
:100F6000EF90DF90CF90BF90AF909F908F900895BB
:100F70009DE2B7CF90E2B5CF2D9381508111FCCF88
:100F8000CE0ED11CE0E0C1CF8EE6D6018C9391E667
:100F9000CCCF9D938150D1CF482F447082FF3DC06C
:100FA00084E0911101C083E08F1510F4EF2DE81B50
:100FB000D6018E2F20E2552309F1992329F0D6017D
:100FC0009C93C60101966C0196012D5F3F4FE2FE96
:100FD0001BC089E4D6018C938EE411968C931197F3
:100FE00086E412968C93D9018E2F90E2882309F41F
:100FF000A6CF9D938150FACF2D9381508111FCCFC4
:10100000CE0ED11CE0E0D9CF89E6D6018C938EE6D6
:1010100011968C93119786E6E4CF9B0177FF02C06F
:1010200030E020E0A1E0B0E0911102C0B0E0A0E02B
:10103000F9013196AE0FBF1F8B2C912CBB2009F408
:1010400061C05401EFEFAE1ABE0AAA0DBB1DFA161D
:101050001B0619F014F04F2D4A1B511188C0E3FCF8
:1010600059C07601A42FB0E2A1114FC0C40ED11C0B
:10107000992309F45BC040E0D6011196F6019083F4
:101080006D01552309F448C0012F060F9A81582F8E
:10109000507184FF03C0913309F4015010160CF015
:1010A00047C0093008F008E0EEE2FE2E5B01A01A0E
:1010B000B10885019194819491082F3F320729F45A
:1010C000D601FC92F60131966F016217730794F115
:1010D000021713077CF5DB01A21BB30BAA24A39410
:1010E000B12CAC0EBD1EAA0DBB1D11968C912150CA
:1010F0003109D601119628153905F4F0F6018083DF
:101100006D01DBCFB12CA12CA0CFF701B1937F01F2
:10111000A150AACF9111B0CFD601942F50E302C0B5
:101120005D9391509111FCCFC40ED11C40E0ACCF27
:1011300001E0BACF80E3DBCF6217730731F4963357
:1011400088F4953311F4552369F0F6018083FD018D
:10115000842F90E2811108C0A40FB11D1C9290E071
:1011600080E0F3CE81E3F1CF91938150F3CF9111E1
:1011700083CF8ACF283008F027E03327DA01990F90
:10118000311D87FD916000966105710539F432606B
:101190002E5F3D9330E32A95E1F708959F3F30F0AD
:1011A00080387105610509F03C5F3C5F3D939130EB
:1011B00008F08068911DDF93CF931F930F93FF92E8
:1011C000EF92192F987F9695E92F96959695E90FAE
:1011D000FF27E25CFE4F99273327EE24FF24A70167
:1011E000E70105900894079428F4360FE71EF81ECF
:1011F000491F511D660F771F881F991F0694A1F77D
:101200000590079428F4E70EF81E491F561FC11DCC
:10121000770F881F991F661F0694A1F70590079402
:1012200028F4F80E491F561FC71FD11D880F991F9C
:10123000661F771F0694A1F70590079420F4490FC5
:10124000561FC71FD81F990F661F771F881F069448
:10125000A9F784911095177041F0D695C7955795C9
:101260004795F794E7941A95C1F7E4EEF0E0689497
:101270001590159135916591959105907FE2739543
:10128000E118F10A430B560BC90BD009C0F7E10C6A
:10129000F11E431F561FC91FD01D7EF4703311F479
:1012A0008A95E6CFE894015030F0080F0AF4002741
:1012B000021708F4202F2395022F7A3328F079E3C0
:1012C0007D932A95E9F710C07D932A9589F60694B7
:1012D00097956795379517951794E118F10A430B81
:1012E000560BC90BD00998F023957E9173957A33EC
:1012F00008F070E37C932013B8F77E9170617D93C2
:1013000030F0839571E37D9370E32A95E1F7112422
:10131000EF90FF900F911F91CF91DF91992787FD5B
:1013200090950895EE0FFF1F881F8BBF0790F691D1
:10133000E02D19940F931F93CF93DF938230910583
:1013400010F482E090E0E091DD02F091DE0230E006
:1013500020E0B0E0A0E0309799F42115310509F4C0
:101360004AC0281B390B24303105D8F58A819B816E
:101370006115710589F1FB0193838283FE0111C020
:10138000408151810281138148175907E0F04817C5
:10139000590799F4109761F012960C9312971396CF
:1013A0001C933296CF01DF91CF911F910F91089539
:1013B0000093DD021093DE02F4CF2115310551F0C8
:1013C0004217530738F0A901DB019A01BD01DF0183
:1013D000F801C1CFEF01F9CF9093DE028093DD02D7
:1013E000CDCFFE01E20FF31F81939193225031097B
:1013F00039832883D7CF2091DB023091DC02232B65
:1014000041F420910302309104023093DC022093D6
:10141000DB0220910102309102022115310541F4D5
:101420002DB73EB74091050250910602241B350BA3
:10143000E091DB02F091DC02E217F307A0F42E1B2F
:101440003F0B2817390778F0AC014E5F5F4F241728
:10145000350748F04E0F5F1F5093DC024093DB02CC
:10146000819391939FCFF0E0E0E09CCFCF93DF9307
:101470000097E9F0FC01329713821282A091DD02FD
:10148000B091DE02ED0130E020E01097A1F4208160
:101490003181820F931F2091DB023091DC022817EB
:1014A000390709F061C0F093DC02E093DB02DF91C1
:1014B000CF910895EA01CE17DF07E8F54A815B81F5
:1014C0009E0141155105B1F7E901FB83EA8349917A
:1014D0005991C40FD51FEC17FD0761F480819181EC
:1014E0000296840F951FE9019983888382819381F5
:1014F0009B838A83F0E0E0E012968D919C91139794
:101500000097B9F52D913C911197CD010296820F6C
:10151000931F2091DB023091DC022817390739F63E
:10152000309751F51092DE021092DD02B093DC028A
:10153000A093DB02BCCFD383C28340815181840F4F
:10154000951FC817D90761F44E5F5F4F8881998155
:10155000480F591F518340838A819B8193838283E3
:101560002115310509F0B0CFF093DE02E093DD02E2
:101570009ECFFD01DC01C0CF13821282D7CF4F92E4
:101580005F926F927F928F929F92AF92BF92CF9213
:10159000DF92EF92FF920F931F93CF93DF938C0113
:1015A000009791F4CB01DF91CF911F910F91FF90A4
:1015B000EF90DF90CF90BF90AF909F908F907F90F3
:1015C0006F905F904F90B6CEFC01E60FF71F9C0125
:1015D00022503109E217F30708F4AAC0D901CD91CE
:1015E000DC911197C617D70718F1C530D10570F0F7
:1015F000CE0104978617970748F0C61BD70B229792
:10160000C193D1936D937C93CF0130DFC801DF91FB
:10161000CF911F910F91FF90EF90DF90CF90BF90EF
:10162000AF909F908F907F906F905F904F900895B4
:101630005B01AC1ABD0A4C018C0E9D1EA091DD020F
:10164000B091DE02512C412CF12CE12C109731F598
:101650008091DB029091DC028815990509F05CC04D
:101660004616570608F058C0809101029091020278
:10167000009741F48DB79EB7409105025091060244
:10168000841B950BE817F90708F052C0F093DC02B1
:10169000E093DB02F90171836083B8CF8D919C9157
:1016A000119712966C90129713967C901397A81529
:1016B000B90559F56C0142E0C40ED11CCA14DB0413
:1016C00020F1AC014A195B09DA011296159780F0F6
:1016D0006282738251834083D9016D937C93E114BC
:1016E000F10471F0D7011396FC93EE9312978ECF0D
:1016F00022968C0F9D1FF90191838083F301EFCF18
:10170000F093DE02E093DD0281CF4816590608F41B
:101710002C017D01D3019ACFCB010CDE7C01009717
:1017200039F0AE01B80107D0C801A0DE87016ECF45
:1017300010E000E06BCFFB01DC0102C001900D92D4
:1017400041505040D8F70895FB01DC0101900D9203
:101750000020E1F7089511E0C0E5D1E000E005C008
:10176000802FFE01DFDD2196011DC135D10780E00C
:081770000807B1F7F894FFCF60
:10177800010000DF0280000000F841000000420084
:101788000004420000F0410000000018028301B08C
:0A179800016402E101BF01D301006A
:00000001FF
