:100000000C94D1000C94F9000C94F9000C94F900B4
:100010000C94F9000C94F9000C94F9000C94F9007C
:100020000C94F9000C94F9000C94F9000C94F9006C
:100030000C94F9000C94F9000C94F9000C94F9005C
:100040000C94D8020C94F9000C94A6020C94800233
:100050000C9434030C9422030C94F9000C94F900D2
:100060000C94F9000C94F90000407A10F35A00A0A7
:10007000724E18090010A5D4E80000E87648170071
:1000800000E40B54020000CA9A3B000000E1F505B1
:10009000000080969800000040420F000000A086FB
:1000A00001000000102700000000E803000000002D
:1000B0006400000000000A000000000001000000D1
:1000C00000002C76D888DC674F0823DFC1DFAE59EB
:1000D000E1B1B796E5E3E453C63AE651997696E87E
:1000E000E6C28426EB898C9B62ED407C6FFCEFBC02
:1000F0009C9F40F2BAA56FA5F490055A2AF75C932D
:100100006B6CF9676DC11BFCE0E40D47FEF520E662
:10011000B500D0ED902E0300943577050080841E45
:10012000080000204E0A000000C80C333333330FA0
:10013000986E12831141EF8D2114893BE65516CF3D
:10014000FEE6DB18D1844B381BF77C1D901DA4BB49
:10015000E424203284725E228100C9F124ECA1E5FE
:100160003D2700000000250028002B0000000000B3
:10017000240027002A0004040404040404040202E6
:100180000202020203030303030301020408102016
:1001900040800102040810200102040810203F03DF
:1001A0005C0611241FBECFEFD8E0DEBFCDBF21E03B
:1001B000AAE2B1E001C01D92AF3DB207E1F711E044
:1001C000A0E0B1E0ECEEF5E102C005900D92AA329C
:1001D000B107D9F710E0C0EDD0E004C02197FE01CF
:1001E0000E94F108CF3CD107C9F70E94A5030C94E7
:1001F000E90A0C9400000895AF92BF92CF92DF926B
:10020000EF92FF920F931F93CF93DF936C017B01CB
:100210008B01040F151FEB015E01AE18BF08C0175C
:10022000D10759F06991D601ED91FC910190F081CF
:10023000E02DC6010995892B79F7C501DF91CF9192
:100240001F910F91FF90EF90DF90CF90BF90AF90F4
:100250000895FC01538D448D252F30E0842F90E0CC
:10026000821B930B541710F0CF96089501970895B1
:10027000FC01918D828D981761F0A28DAE0FBF2F7A
:10028000B11D5D968C91928D9F5F9F73928F90E0D0
:1002900008958FEF9FEF0895FC01918D828D98173F
:1002A00031F0828DE80FF11D858D90E008958FEF7C
:1002B0009FEF0895FC01918D228D892F90E0805C45
:1002C0009F4F821B91098F739927089588E391E0CE
:1002D0000E945A0121E0892B09F420E0822F089521
:1002E00080E090E0892B29F00E94660181110C9436
:1002F00000000895FC01A48DA80FB92FB11DA35AC9
:10030000BF4F2C91848D90E001968F739927848F35
:10031000A689B7892C93A089B1898C918370806458
:100320008C93938D848D981306C00288F389E02DF9
:1003300080818F7D80830895EF92FF920F931F93AA
:10034000CF93DF93EC0181E0888F9B8D8C8D981388
:100350001AC0E889F989808185FF15C09FB7F89494
:10036000EE89FF896083E889F989808183708064E0
:1003700080839FBF81E090E0DF91CF911F910F912B
:10038000FF90EF900895F62E0B8D10E00F5F1F4F3A
:100390000F731127E02E8C8D8E110CC00FB607FC49
:1003A000FACFE889F989808185FFF5CFCE010E94D7
:1003B0007A01F1CFEB8DEC0FFD2FF11DE35AFF4FCA
:1003C000F0829FB7F8940B8FEA89FB898081806265
:1003D000CFCFCF93DF93EC01888D8823B9F0AA8922
:1003E000BB89E889F9898C9185FD03C0808186FDF0
:1003F0000DC00FB607FCF7CF8C9185FFF2CF80813F
:1004000085FFEDCFCE010E947A01E9CFDF91CF9138
:1004100008953FB7F89480912F0190913001A091F9
:100420003101B091320126B5A89B05C02F3F19F0CC
:100430000196A11DB11D3FBFBA2FA92F982F882764
:10044000BC01CD01620F711D811D911D42E0660F3F
:10045000771F881F991F4A95D1F70895CF92DF9291
:10046000EF92FF920E9409026B017C010E94090237
:100470006C197D098E099F09683E734081059105BD
:10048000A8F3FF90EF90DF90CF900895CF93DF9384
:10049000EC0188819981009711F00E9493091982DB
:1004A00018821D821C821B821A82DF91CF910895CF
:1004B0000F931F93CF93DF93EC018881998100976D
:1004C00059F02A813B812617370730F081E0DF9110
:1004D000CF911F910F9108958B016F5F7F4F0E9405
:1004E0001C0A009759F0998388831B830A832C8107
:1004F0003D81232B59F7FC011082E8CF80E0E7CF44
:100500001F920F920FB60F9211242F933F934F9388
:100510005F936F937F938F939F93AF93BF93EF936B
:10052000FF9388E391E00E947A01FF91EF91BF91E0
:10053000AF919F918F917F916F915F914F913F917B
:100540002F910F900FBE0F901F9018951F920F9232
:100550000FB60F9211242F938F939F93EF93FF93D6
:10056000E0914801F09149018081E0914E01F091C4
:100570004F0182FD1BC09081809151018F5F8F736D
:1005800020915201821741F0E0915101F0E0E85CC6
:10059000FE4F958F80935101FF91EF919F918F9125
:1005A0002F910F900FBE0F901F9018958081F4CF60
:1005B0001F920F920FB60F9211242F933F938F9398
:1005C0009F93AF93BF9380912B0190912C01A091A9
:1005D0002D01B0912E0130912A0123E0230F2D37F8
:1005E00058F50196A11DB11D20932A0180932B017E
:1005F00090932C01A0932D01B0932E0180912F0197
:1006000090913001A0913101B09132010196A11D6C
:10061000B11D80932F0190933001A0933101B093CD
:100620003201BF91AF919F918F913F912F910F9088
:100630000FBE0F901F90189526E8230F0296A11D5C
:10064000B11DD2CF1F920F920FB60F9211248F932C
:100650009F9380917800909179009F918F910F9056
:100660000FBE0F901F9018951F920F920FB60F920A
:1006700011245A980F900FBE0F901F90189510924A
:100680003B0110923A0188EE93E0A0E0B0E0809345
:100690003C0190933D01A0933E01B0933F018BE15B
:1006A00091E0909339018093380185EC90E090932C
:1006B00045018093440184EC90E09093470180933E
:1006C000460180EC90E0909349018093480181ECD1
:1006D00090E090934B0180934A0182EC90E09093DC
:1006E0004D0180934C0186EC90E090934F018093F4
:1006F0004E0110925101109252011092530110922A
:1007000054011092D6011092D5011092D801109286
:10071000D7011092DA011092D90170E060E085ED06
:1007200091E00E945802811104C085ED91E00C9483
:1007300046021092DA011092D90169E271E08091CB
:10074000D5019091D6010C94E20ACF93DF93CDB7F7
:10075000DEB7AB970FB6F894DEBF0FBECDBF78946F
:1007600084B5826084BD84B5816084BD85B58260B6
:1007700085BD85B5816085BD80916E008160809367
:100780006E001092810080918100826080938100D0
:1007900080918100816080938100809180008160E0
:1007A000809380008091B10084608093B10080913B
:1007B000B00081608093B00080917A008460809363
:1007C0007A0080917A00826080937A0080917A002A
:1007D000816080937A0080917A00806880937A00AB
:1007E0001092C10087E08AB988EF8BB9E091480187
:1007F000F091490182E08083E0914401F09145014C
:100800001082E0914601F09147018FEC80831092B5
:100810005001E0914C01F0914D0186E08083E09120
:100820004A01F0914B01808180618083E0914A010F
:10083000F0914B01808188608083E0914A01F091C2
:100840004B01808180688083E0914A01F0914B01E7
:1008500080818F7D80838091C10084648093C100FA
:100860008091C00081608093C0000E942E028BE7BF
:100870008093370117B88EEF88B980E480937C00AD
:100880008EE880937A00E8E9F1E02491E4E8F1E071
:1008900084918823C9F090E0880F991FFC01E459E6
:1008A000FE4F45915491FC01EE59FE4FA591B49134
:1008B0009FB7F894FA0180812095822380838C91E0
:1008C000E22FE823EC939FBF44244394512C88E308
:1008D00091E00E945A01892BB1F088E391E00E94D7
:1008E0003801909100019923C9F090913701891343
:1008F0000AC01092000181E0809336018091C0000F
:100900008E7F8093C00060E070E0672B01F30E944F
:1009100066018823E1F20E940000D9CF9091360150
:10092000992389F310923601813B69F78091340154
:1009300090913501049721F4109235011092340101
:1009400081E0809300015A9A80917A0080648093BC
:100950007A000E942E02E0913401F0913501EE0FF1
:10096000FF1FEE0FFF1FE95FFE4F608171818281E3
:1009700093812DB73EB739A728A71BA21AA21DA2A3
:100980001CA21FA21EA28E010F5F1F4F22E044E097
:100990000E9465067C01009779F0FC01019000201F
:1009A000E9F731978F01081B190BB801CE01829628
:1009B0000E945802811181C0CE0182960E94460297
:1009C0008091D5019091D601009709F480C06AA169
:1009D0007BA16115710509F478C04091D701509150
:1009E000D8012EA13FA14217530708F46EC00E9400
:1009F000E20A8EA19FA19093DA018093D9011FA2F0
:100A00001EA28AA19BA1009711F00E9493096090F9
:100A1000D9017090DA0113013FEF231A330AC301A1
:100A200002966DB77EB7681B790B0FB6F8947EBF40
:100A30000FBE6DBF8DB79EB701969101FC0137FFC8
:100A40005DC04091D5015091D60130E020E06FEFBC
:100A50007AE9AAE8BAE71AE60AE5EAE4FE2EFAE33A
:100A6000EF2EEAE2DE2EFAE1CF2EEAE0BE2E2615C8
:100A7000370509F480C0FA01E20FF31F4115510553
:100A800021F410923301E3E3F1E0E081EE52EC3027
:100A900008F03CC00E2E000CFF0BEF5AFA4F0C94DE
:100AA000F108B6058605820589058E05930598052A
:100AB0009D05A205A705AC05B1051FA30EA3B701AF
:100AC0008AA19BA10E94E20A7BCF0E9493098AA17E
:100AD0009BA19093D6018093D5018CA19DA1909369
:100AE000D8018093D7018EA19FA19093DA018093C2
:100AF000D9011BA21AA21DA21CA281CF11922150C2
:100B000031099DCFFC01E20FF31FB0822F5F3F4FF1
:100B1000AECFFC01E20FF31FC082F8CFFC01E20F61
:100B2000F31FD082F3CFFC01E20FF31FE082EECF80
:100B3000FC01E20FF31FF082E9CFFC01E20FF31F8B
:100B40000083E4CFFC01E20FF31F1083DFCFFC0131
:100B5000E20FF31FB083DACFFC01E20FF31FA08393
:100B6000D5CFFC01E20FF31F7083D0CFFC01E20F61
:100B7000F31F6083CBCFADB7BEB7A619B7090FB6C9
:100B8000F894BEBF0FBEADBF2DB73EB72F5F3F4F2E
:100B90003BA72AA78C014901860C971C7C01D9012F
:100BA000A815B90531F1F701A1907F0170E060E06F
:100BB00050E040E0B12C6501042E02C0D594C794EA
:100BC0000A94E2F7C0FE0EC0F7E0CF2ED12CC41A73
:100BD000D50AF20102C0EE0FFF1FCA94E2F76F01BF
:100BE0006E2B7D294F5F5F4F4830510521F76D9384
:100BF000D7CF2B5F3F4F50E040E0AAA5BBA56D913A
:100C0000BBA7AAA7562768E070E0DA01440F551F7A
:100C1000B7FF02C0B5ED4B2761507109B1F7EAA5E6
:100C2000FBA52E173F0749F770E060E030E020E0B9
:100C3000F201022E02C0EE0FFF1F0A94E2F7E42336
:100C4000F523EF2B69F0EFE0F0E0E21BF30BD201AC
:100C500002C0AA0FBB1FEA95E2F7FD016A2B7F2BAA
:100C60002F5F3F4F2031310519F7FC01E60DF71DCD
:100C70007083FC01E20DF31D60837C01B7E0EB0E95
:100C8000F11CF80161918F0188E391E00E949C01C1
:100C9000E016F106B1F728A539A50FB6F8943EBFC6
:100CA0000FBE2DBF80913401909135010196909334
:100CB00035018093340127CE8091D5019091D601E2
:100CC000009711F00C9493090895EF920F931F93DE
:100CD000CF93DF93E80134E047FD34E1042E000CAC
:100CE000550B57FF03C0519541955109E32E022F33
:100CF000242FAE010E948306CE01DF91CF911F9178
:100D00000F91EF900895A9E0B0E0E9E8F6E00C94C7
:100D1000C0086A01F22EB02E102FFBE3AF2EA016F2
:100D200008F41BE31F5F012F27E0AE014F5F5F4F09
:100D30000E94E207BC018981982F9970913009F4D3
:100D40003FC09BE2E1FC04C09E2D9170E0FC3AC0E4
:100D50005E2D5071E82FE87083FF46C084E091114A
:100D600001C083E0EF2DE81B8F1508F0E0E0D6010D
:100D70008E2F20E2552351F1992329F0D6019C931F
:100D8000C60101966C0196012D5F3F4FE2FE24C023
:100D90008EE4D6018C9391E411969C931197129650
:100DA0008C93D9018E2F90E281111BC0E20FF32F9B
:100DB000F11D10828EEF9FEF2996ECE00C94DC0879
:100DC0009DE2C6CF90E2C4CF2D9381508111FCCF1C
:100DD000CE0ED11CE0E0D0CF8EE6D6018C9391E60A
:100DE000DBCF9D938150E0CF482F447082FF3DC000
:100DF00084E0911101C083E08F1510F4EF2DE81B02
:100E0000D6018E2F20E2552309F1992329F0D6012E
:100E10009C93C60101966C0196012D5F3F4FE2FE47
:100E20001BC089E4D6018C938EE411968C931197A4
:100E300086E412968C93D9018E2F90E2882309F4D0
:100E4000B5CF9D938150FACF2D9381508111FCCF66
:100E5000CE0ED11CE0E0D9CF89E6D6018C938EE688
:100E600011968C93119786E6E4CF9B0177FF02C021
:100E700030E020E0A1E0B0E0911102C0B0E0A0E0DD
:100E8000F9013196AE0FBF1F8B2C912CBB2009F4BA
:100E900061C05401EFEFAE1ABE0AAA0DBB1DFA16CF
:100EA0001B0619F014F04F2D4A1B511188C0E3FCAA
:100EB00059C07601A42FB0E2A1114FC0C40ED11CBD
:100EC000992309F45BC040E0D6011196F6019083A6
:100ED0006D01552309F448C0012F060F9A81582F40
:100EE000507184FF03C0913309F4015010160CF0C7
:100EF00047C0093008F008E0EEE2FE2E5B01A01AC0
:100F0000B10885019194819491082F3F320729F40B
:100F1000D601FC92F60131966F016217730794F1C6
:100F2000021713077CF5DB01A21BB30BAA24A394C1
:100F3000B12CAC0EBD1EAA0DBB1D11968C9121507B
:100F40003109D601119628153905F4F0F601808390
:100F50006D01DBCFB12CA12CA0CFF701B1937F01A4
:100F6000A150AACF9111B0CFD601942F50E302C067
:100F70005D9391509111FCCFC40ED11C40E0ACCFD9
:100F800001E0BACF80E3DBCF6217730731F4963309
:100F900088F4953311F4552369F0F6018083FD013F
:100FA000842F90E2811108C0A40FB11D1C9290E023
:100FB00080E002CF81E3F1CF91938150F3CF911183
:100FC00083CF8ACF283008F027E03327DA01990F42
:100FD000311D87FD916000966105710539F432601D
:100FE0002E5F3D9330E32A95E1F708959F3F30F05F
:100FF00080387105610509F03C5F3C5F3D9391309D
:1010000008F08068911DDF93CF931F930F93FF9299
:10101000EF92192F987F9695E92F96959695E90F5F
:10102000FF27EE53FF4F99273327EE24FF24A70114
:10103000E70105900894079428F4360FE71EF81E80
:10104000491F511D660F771F881F991F0694A1F72E
:101050000590079428F4E70EF81E491F561FC11D7E
:10106000770F881F991F661F0694A1F705900794B4
:1010700028F4F80E491F561FC71FD11D880F991F4E
:10108000661F771F0694A1F70590079420F4490F77
:10109000561FC71FD81F990F661F771F881F0694FA
:1010A000A9F784911095177041F0D695C79557957B
:1010B0004795F794E7941A95C1F7E8E6F0E068944D
:1010C0001590159135916591959105907FE27395F5
:1010D000E118F10A430B560BC90BD009C0F7E10C1C
:1010E000F11E431F561FC91FD01D7EF4703311F42B
:1010F0008A95E6CFE894015030F0080F0AF40027F3
:10110000021708F4202F2395022F7A3328F079E371
:101110007D932A95E9F710C07D932A9589F6069468
:1011200097956795379517951794E118F10A430B32
:10113000560BC90BD00998F023957E9173957A339D
:1011400008F070E37C932013B8F77E9170617D9373
:1011500030F0839571E37D9370E32A95E1F71124D4
:10116000EF90FF900F911F91CF91DF91992787FD0D
:10117000909508952F923F924F925F926F927F9237
:101180008F929F92AF92BF92CF92DF92EF92FF9297
:101190000F931F93CF93DF93CDB7DEB7CA1BDB0B43
:1011A0000FB6F894DEBF0FBECDBF09942A883988E8
:1011B00048885F846E847D848C849B84AA84B984EF
:1011C000C884DF80EE80FD800C811B81AA81B981FB
:1011D000CE0FD11D0FB6F894DEBF0FBECDBFED010F
:1011E0000895EE0FFF1F0590F491E02D09940F93E1
:1011F0001F93CF93DF938230910510F482E090E04B
:10120000E091DD01F091DE0130E020E0B0E0A0E00F
:10121000309799F42115310509F44AC0281B390B80
:1012200024303105D8F58A819B816115710589F1DA
:10123000FB0193838283FE0111C0408151810281B1
:10124000138148175907E0F04817590799F4109788
:1012500061F012960C93129713961C933296CF015D
:10126000DF91CF911F910F9108950093DD011093AD
:10127000DE01F4CF2115310551F04217530738F044
:10128000A901DB019A01BD01DF01F801C1CFEF0126
:10129000F9CF9093DE018093DD01CDCFFE01E20F07
:1012A000F31F819391932250310939832883D7CF3B
:1012B0002091DB013091DC01232B41F420910301CB
:1012C000309104013093DC012093DB012091010176
:1012D000309102012115310541F42DB73EB74091FF
:1012E000050150910601241B350BE091DB01F091C3
:1012F000DC01E217F307A0F42E1B3F0B2817390778
:1013000078F0AC014E5F5F4F2417350748F04E0F61
:101310005F1F5093DC014093DB01819391939FCF3A
:10132000F0E0E0E09CCFCF93DF930097E9F0FC0181
:10133000329713821282A091DD01B091DE01ED019E
:1013400030E020E01097A1F420813181820F931FBB
:101350002091DB013091DC012817390709F061C0C9
:10136000F093DC01E093DB01DF91CF910895EA0176
:10137000CE17DF07E8F54A815B819E0141155105D3
:10138000B1F7E901FB83EA8349915991C40FD51F55
:10139000EC17FD0761F4808191810296840F951FFF
:1013A000E90199838883828193819B838A83F0E01A
:1013B000E0E012968D919C9113970097B9F52D91CD
:1013C0003C911197CD010296820F931F2091DB0172
:1013D0003091DC012817390739F6309751F5109212
:1013E000DE011092DD01B093DC01A093DB01BCCFE4
:1013F000D383C28340815181840F951FC817D907B9
:1014000061F44E5F5F4F88819981480F591F518366
:1014100040838A819B81938382832115310509F062
:10142000B0CFF093DE01E093DD019ECFFD01DC0142
:10143000C0CF13821282D7CFB0E0A0E0E2E2FAE0A0
:101440000C94BC088C01009751F4CB010E94F70862
:101450008C01C801CDB7DEB7E0E10C94D808FC01DF
:10146000E60FF71F9C0122503109E217F30708F439
:101470009DC0D901CD91DC911197C617D70798F07F
:10148000C530D10530F3CE0104978617970708F3CE
:10149000C61BD70B2297C193D1936D937C93CF0139
:1014A0000E949309D6CF5B01AC1ABD0A4C018C0E89
:1014B0009D1EA091DD01B091DE01512C412CF12C3B
:1014C000E12C109731F58091DB019091DC018815BA
:1014D000990509F05CC04616570608F058C080917F
:1014E000010190910201009741F48DB79EB74091A0
:1014F000050150910601841B950BE817F90708F0C8
:1015000055C0F093DC01E093DB01F9017183608346
:10151000A0CF8D919C91119712966C901297139673
:101520007C901397A815B90559F56C0142E0C40EDB
:10153000D11CCA14DB0420F1AC014A195B09DA01A1
:101540001296159780F06282738251834083D9018D
:101550006D937C93E114F10471F0D7011396FC9321
:10156000EE93129776CF22968C0F9D1FF9019183EF
:101570008083F301EFCFF093DE01E093DD0169CFCB
:101580004816590608F42C017D01D3019ACFCB01EE
:101590000E94F7087C01009749F0AE01B8010E9453
:1015A000D90AC8010E949309870153CF10E000E0D7
:1015B00050CFFB01DC0102C001900D924150504020
:1015C000D8F70895FB01DC0101900D920020E1F7AE
:1015D000089510E0C0EDD0E004C0FE010E94F108C3
:0C15E0002196C13DD107C9F7F894FFCF58
:1015EC00010000DF0180000000A841000000420063
:1015FC000004420000F041000000009C01FC0029A6
:0A160C0001E9015A0138014C010008
:00000001FF
