:400000000040002011000000590800005908000010B500F029FCC04610B51222154B1A60302000F059FD144A144B1A60144A154B1A60154B1549196015490A60154A1A60FD
:4000400080221206144B1A608022D202134B1A604022134B1A600132124B1A601249072000F096FC072000F087FC00220F4B1A6010BDC046300010400600008004010B409E
:40008000007FBB00000301400000014040FF00800403014041FF008008010B4000010B404C0101402C0101402D0C00000C020B4010B572B600240FE02B4862001319590032
:4000C0000B00411889881A5AC31858880004104300F0BCFB0134E4B2012CEDD922490C312248443000F088FB214A224B1A60EE221202214B1A6099231B04204A1360204A29
:400100001360D82109061F4A11601F4A13601F4A1F4B1A601F490B783C22934314221343DBB20B701C4A117816230B43DBB2137080221A4B1A601A4A1A4B1A60802212028E
:40014000194B1A607222194B1A60194A194B1A600822194B1A60D8221201184B1A60FFF75BFF00F063FB10BD9C1500009C17000000003303000202400003024000500F40CF
:4001800020500F4028500F4030500F400404004458320F4001700F4000700F4000000440B66D5B00080004400C00044000020440D0661B00080204400C0204400803044062
:4001C00010B5064C2378002B07D1054B002B02D0044800E000BF0123237010BD480100200000000004150000084B10B5002B03D00749084800E000BF07480368002B00D101
:4002000010BD064B002BFBD09847F9E7000000004C01002004150000C00000200000000010B5054B1A7851424A411A7000225A7000F064FB10BDC0466401002010B5084B8B
:400240009B78022B03D90022054B9A7002E00133034A93700122024BDA7001F01DF810BD6401002070B562B608238B4A137002218A4A11708A4A13708A4C6371002323717E
:4002800000F08AFF884800F0C3FF884800F0F6FF874801F02FF800F0A3FE00F019FE012000F0CAFD0521002000F022FE814800F0B1FD0221012000F01BFE7F4800F0AAFDCF
:4002C0007E4800F077FB012000F0B6FD0021002000F00EFE7A4800F09DFD257900F04CFE142802DD142000F04DFE00F045FE002802DC012000F046FE6A4BDB78002B53D043
:40030000012000F099FD674B9B78012B0ED0002B04D0022B1ED0032B30D042E00021002000F0E6FD664800F075FD3AE00021002000F0DEFD634800F06DFD0021012000F05C
:40034000D7FD614800F066FD534B0020185600F019FE26E00021002000F0CAFD5B4800F059FD0021012000F0C3FD574800F052FD4A4B0020185600F005FE12E0002100207A
:4003800000F0B6FD524800F045FD0021012000F0AFFD4D4800F03EFD414B0020185600F0F1FD00223F4BDA703E4B9B78002B20D13C4B1B799D4208D00021012000F098FDF1
:4003C000444800F027FD374B1D79364B5C792900012000F08DFD092C07D8302000F028FD691CC9B2012000F083FD200000F09EFD74E7012B18D10521012000F079FD00F069
:40040000BBFD092806DC302000F012FD0621012000F06EFD00F0B0FD80B200F087FD00F0ABFD1D4B187059E7022B18D10521012000F05EFD00F0A0FD092806DC302000F06C
:40044000F7FC0621012000F053FD00F095FD80B200F06CFD00F090FD104B18703EE7032B00D03BE70521012000F042FD00F084FD092806DC302000F0DBFC0621012000F006
:4004800037FD00F079FD80B200F050FD00F074FD034B187022E7C0469B0100209A010020990100206401002061070000210200003D0200000815000018150000701700009C
:4004C00024150000381500004C15000060150000741500008815000070B50400424B1B78032B53D9414A50782278D91E511888420DDA042000F09AFE3C4B0B221A71227854
:400500005978511A384A12788A185A716AE0991E5118884212DA042000F088FE334D0B232B71022000F082FE04232B7123786A789A1A2D4B1B78D3186B7153E0591E511897
:4005400088420DDA042000F071FE284B0B221A7122785978511A244A12788A185A7141E0D31898423EDA042000F060FE1F4D0B232B71022000F05AFE04232B7123786A7891
:400580009A1A194B1B78D3186B712BE0032B29D1164A517800785A1E821891420DDA042000F044FE114B0B221A7122785978511A0D4A12788A185A7114E0C318994211DA06
:4005C000042000F033FE094D0B232B71022000F02DFE04232B7123786A789A1A024B1B78D3186B7170BDC046990100206401002010B50400012000F019FE054B00221A715E
:4006000022785978521A0349097852185A7110BD640100209B01002010B50400042000F005FE054B0B221A7122785978521A0349097852185A7110BD640100209901002006
:4006400070B50400434B1B78032B53D9424A51780078DA1E821891420DDA012000F0E6FD3D4B0B221A7122785978511A394A12788A185A716CE09A1E8218914212DA0120BB
:4006800000F0D4FD344D0B232B71022000F0CEFD04232B7123786A789A1A2E4B1B78D3186B7155E05A1E821891420DDA012000F0BDFD294B0B221A7122785978511A254A4D
:4006C00012788A185A7143E0C318994240DA012000F0ACFD204D0B232B71022000F0A6FD04232B7123786A789A1A1A4B1B78D3186B712DE0194B1B78022B29D9164A51785B
:4007000000785A1E821891420DDA012000F08EFD114B0B221A7122785978511A0F4A12788A185A7114E0C318994211DA012000F07DFD094D0B232B71022000F077FD0423B2
:400740002B7123786A789A1A044B1B78D3186B7170BDC0469B010020640100209901002000B583B0204B5B78132B02D900221E4B5A701D4B1B78002B16D01B4B58781B4B99
:400780001A781B4B1B78D118884206DA6B46D81D00230370FFF740FF1CE06946C81DD3180370FFF74DFF15E00F4B5878114B1A780F4B1B78D118884206DA6B46D81D002324
:4007C0000370FFF715FF05E06946C81DD3180370FFF782FE044A537801335370012000F0EBFC03B000BDC04664010020990100209A0100209B010020F0B50025002711E019
:40080000BB00C658F3B2FF22964308E06A008A181478A419527822700135013BDBB2002BF4D10137072FEBD9F0BDC0460323044A1360044A13600022034B1A607047C04684
:400840003000304030003140000E3F4010B50A00002100F04FFE10BD10B500F01FFE03680C2B00D1FEE7FEE770B50F4E0F4D13E029686B68AC68002202E001C901C3043290
:40088000A242FAD1E868002202E0002102C304328242FAD11035013E002EE9D100F004FEFFF7E0FCFEE7C046010000005418000010B50E4A136801218B43136000230AE0FA
:4008C000032B03D89A000A49505800E009489900094A885001332F2BF2D9FFF7E9FB034A116801230B43136010BDC04600001040000000005908000000000020034B186815
:40090000C0B27F2290431860C00970471000044000230AE00D4A12683F210A400C49C95C8A4201D1033303E001332D2BF2D9032308490868084A02400A60084A94466344BD
:400940001B78DBB2064A13607047C0462CFF0B400018000000002240FFFFFFBFCDF1FF0F28FF0B40034B18688023DB05184000D001207047000022401F2318401E3B834084
:40098000014A13607047C04600E100E001BE704770B504000D001F2802D90020FFF7F6FF1034A40080239B059C4664442068256070BDC04610B5040006E0084B586800F07B
:4009C000A7FC074B9C46644480231B029C42F4D8024B9868604300F09BFC10BDC40000200080FFFF70B582B000F0CAF800285DD000F097FC050000230AE02D4A12683F2124
:400A00000A402C49C95C8A4201D1033303E001332D2BF2D903230021274A1160274A1268D20606D1254802681F318A4313390A430260234C2168234A1140234A5A438023AF
:400A4000DB019C466244D20B013A5205520D0B001343A0225203134323601C4B1B680193302000F065FC1A4A13688021C9050B4313602668174B1E40002407E00120FFF755
:400A800099FF1034A30533430D4A1360EE2CF5D90120FFF78FFFFF239B051E43084B1E60019A0A4B1A60280000F03FFC02B070BD2CFF0B400018000028FF0B4034FF0B40D7
:400AC0000800224000F800C040420F003000104000002240FFFF3FC030B587B0040000F020FC0500FFF73EFF002803D0FFF710FF012100E00021104B1B6800930F4B1B688F
:400B00000193033C0E4B1B5D02930E4B1B68039304AA0D4B04936B4605930C4B1A600C480C4A10601B68012901D1FFF75BFF280000F0FBFB07B030BD08010B4000010B4018
:400B40000018000030001040B6EA000008001040170000800400104010B5034B1B7B584300F0D6FB10BDC046C4000020034B1868C0231B02184000D00120704700010B4024
:400B8000034B1B68002B01DA012000E0002070470000224010B500F0C4FB044A1368C02109020B43136000F0C0FB10BD00010B4010B500F0B6FB08490A68084B1A408024FC
:400BC000E40122430A600A6813408022120213430B6000F0AAFB10BD00010B40FF3FFFFF70B5050000F09DFB0400FFF7BFFF002803D0FFF7DDFF012100E000210848284009
:400C0000084A1568084B2B40184310601368012901D1FFF7BFFF200000F087FB70BDC0460404040010020B40FBFBFBFF10B5244B1B685B0715D5234B5B685B070ED5224B2D
:400C4000596A042001401F4C62688A4362605A6A82435A629B69002B00D098470420FFF7BFFF174B1B685B0518D5164B5B685B0510D5154B596A8022D20011401148426807
:400C80008A434260596A114A0A405A62DB69002B00D098478020C000FFF7A2FF084B1B685B030CD5074B5B685B0304D5064B1B6A002B00D098478020C002FFF791FF10BDC6
:400CC00010020B40D80000206C010020FFFBFFFF10B50B4C226860239A4322602268513B9A432260226810230343D8B2104320600120FFF731FF236810229343236010BD93
:400D00000000044070B505000E4C226820231343236023684022934323600020FFF71CFF23680F2293432360226810232B43D8B2104320600120FFF70FFF23681022934379
:400D4000236070BD00000440F8B5274A13687F218B43136025490B681B0B1B03244803430B60136820218B431360116840230B431360CA277F000020FFF7EEFE1A4C2368C6
:400D80001026334323600120FFF7E6FE194B1D682368B34323600020FFF7DEFE08231D402368334323600120FFF7D6FE2368B3432360002D02D10A20FFF7CEFE013F002DD6
:400DC00001D0002FD7D1084B1A6840218A431A601A683F318A431A60044A13681B0B1B0305490B431360F8BD00000440080004404902000004000440B60D000010B5040015
:400E0000FFF7A2FF2009FFF77DFF0F202040FFF779FF10BD70B505000078012404E0FFF7EDFF285D0134E4B20028F8D170BDC04610B5FFF7E3FF10BD10B50400FFF784FF09
:400E40002009FFF745FF0F202040FFF741FF10BD10B52820FFF7AEFD0320FFF739FF0520FFF7A8FD0320FFF733FF0F20FFF7A2FD0320FFF72DFF0120FFF79CFD0220FFF7A2
:400E800027FF0520FFF796FD0620FFF7D5FF0E20FFF7D2FF2C20FFF7CFFF0820FFF7CCFF0120FFF7C9FF0C20FFF7C6FF0320FFF7C3FF0520FFF77EFD10BDC04610B50C2085
:400EC000FFF7BAFF0122014B1A7010BD9401002010B5064B5B78002B04D1FFF7B9FF0122024B5A70FFF7EAFF10BDC0469401002010B501280BD0002804D002280CD003289A
:400F00000FD012E08039C8B2FFF796FF0DE04039C8B2FFF791FF08E06C39C8B2FFF78CFF03E02C39C8B2FFF787FF10BD30B585B00400002201AB9A7209250EE00A212000CA
:400F400000F0A6FAC9B2303101AB59550A21200000F018FA0400013DEDB2092CEED80A21200000F095FAC9B2303101A841554019FFF750FF05B030BD10B500F05FF8803899
:400F800040B210BD10B5002803DBC0B28038C0B201E08038C0B200F04BF810BD024B18780F2318407047C04663000F40014B18707047C04683000F4010B50F20FFF7F6FFE8
:400FC000FFF7ECFF00F0ADF9044A117810230B43DBB2137000F0A9F910BDC04693000F4010B500F07BF8802000F022F8044B1B78002B02D10122024B1A70FFF7DDFF10BD80
:4010000096010020034A117880235B420B43DBB21370704771000F40014B18707047C04682000F40014B1878C0B2704762000F40014B18707047C04601000F40024B1B7835
:40104000024B1878C0B2704701000F4041000F40014B1878C0B2704741000F40014B18707047C04621000F40014B18707047C04631000F4010B501E0FFF7EAFFFFF7D2FF97
:401080004306F9D410BDC04610B5124B1A7807218A431A701A7804398A431A70FFF7EAFF8020FFF7DBFF8020FFF7C2FF0020FFF7B3FFFFF7B7FF8020FFF7D6FF00F031F94F
:4010C000054A117810230B43DBB2137000F02DF910BDC04671000F4092000F4010B5064B1B78002B04D1FFF7CFFF0122024B1A70FFF788FF10BDC046970100200004000C7E
:40110000014B18607047C046080120400004000C014B18607047C0461401204070B504000D0000F0FEF8AC40024B1C6000F0FDF870BDC0460800204010B500F0F2F8064A7F
:40114000116801230B43136000F0EFF818210120FFF7E4FF10BDC04600002040014B18607047C0463801204010B580229204084B1A600C22074B1A600120FFF7EFFFFA20D7
:401180008000FFF7C3FF0020FFF7B8FF10BDC046000120402401204010B5064B1B78002B04D1FFF7E1FF0122024B1A70FFF7C4FF10BDC04698010020014B18607047C04632
:4011C000300120408C23014AD05070470000002010B5040000F0A5F8044A13689B009B08A4071C43146000F0A0F810BD10E400E080221203014B1A607047C04600E100E06E
:4012000080221203014B1A607047C04680E100E010B50400FFF7F4FF2000FFF7D3FF0320FFF7D6FFFFF7E4FF10BDC046014B18707047C04670000F40014B18647047C0462A
:401240000000002010B5040000F06BF8044A1368C0218B43A4011C43146000F066F810BD00E400E00122014B1A60704700E100E00122014B1A60704780E100E010B5040058
:40128000FFF7F6FF2000FFF7D7FF0320FFF7DAFFFFF7E8FF10BDC046034A10680223184010604008C0B2704710020440014B98647047C0460000002010B5040000F031F835
:4012C000044A1168044B0B40A4051C43146000F02CF810BD00E400E0FFFF3FFF0422014B1A60704700E100E00422014B1A60704780E100E010B50400FFF7F6FF2000FFF71E
:40130000D5FF0320FFF7D8FFFFF7E8FF10BDC0460230800803D00138FDD1C046C046C0467047EFF3108072B6704780F31088704770B50400FFF7F5FF0500102C05D8104A3E
:40134000136803218B43136016E0202C07D80C490B6803229343023A13430B600CE0302C07D807490B6803229343013A13430B6002E00020FFF70AFB2800FFF7D6FF70BDAE
:4013800030001040002243088B4274D303098B425FD3030A8B4244D3030B8B4228D3030C8B420DD3FF22090212BA030C8B4202D31212090265D0030B8B4219D300E0090AD7
:4013C000C30B8B4201D3CB03C01A5241830B8B4201D38B03C01A5241430B8B4201D34B03C01A5241030B8B4201D30B03C01A5241C30A8B4201D3CB02C01A5241830A8B4243
:4014000001D38B02C01A5241430A8B4201D34B02C01A5241030A8B4201D30B02C01A5241CDD2C3098B4201D3CB01C01A524183098B4201D38B01C01A524143098B4201D3B6
:401440004B01C01A524103098B4201D30B01C01A5241C3088B4201D3CB00C01A524183088B4201D38B00C01A524143088B4201D34B00C01A5241411A00D2014652411046C4
:401480007047FFE701B5002000F006F802BDC0460029F7D076E770477047C046014B18687047C046400100200E4B70B500251E000D4CE41AA410A54204D0AB00F3589847FF
:4014C0000135F8E700F0B4F9084B00251E00084CE41AA410A54204D0AB00F35898470135F8E770BD3C1800003C1800003C1800004418000003008218934202D01970013373
:40150000FAE770470000000056696B61205965686F726F7661000000496F542D32303139000000005245442059454C4C4F5720475245454E000000005345542052454420A7
:4015400054494D453A2020200000000054494D453D2020202020202020202020000000005345542059454C4C4F572054494D453A0000000053455420475245454E2054492B
:401580004D453A2000000000202020202020202020202020202020200000000000300F40000400400F400004826F830F00CC0130022103C904CC06120B0F0C080DCF0EF1C9
:4015C0000F301080121F147718BB19FD1A441B022573299E2B602D942F6030F0340F35FF3F10580459045B045F0180C68230831084A6865088F589108C088D048F08905027
:4016000092A09313947B95069808990C9B029D0CA030A10EA2C0A90AAB04B207B310B4F0B501B608B70EB888BE40BF04C021C106C542C6C0C73EC83BC9FFCAFFCBFFCDA0FB
:40164000CF01D018D280D804D904DA04DB04DF01E040E280E440E540E680E840EA80EC40ED20EE80018A0408051A0602081009080A400D010E600F081680188819221D9CB2
:401680001E2020042510272229A42A802D223010311035943702388039023B103C023D203E40458047204E804F1A5501561A69A06A04740181408A04C0FDC27EC410CAAEFD
:4016C000CCF4CEBDD030D220E0010302040107010E021A011E041F04250429023001320233013404350237043E013F50540F580459045B045F0587208B1E8E018F109004F4
:4017000091109401951C980199029F01A104A308A51CA804A904AB08AE02AF02B004B101B33CB401B602B702B802BE10BF40D40FD804D904DB04DF010302060207200921B5
:401740000B100F0A1001111019901B421D201F2921012241231026402728281029202B422F28312432013340368038843B103E023F08580259145A885D105E805F096618AD
:40178000670379107B047E0488128F40908495029710981199249A1A9D80A101A280A305AD10B001C0A1C2CEC403CA6FCC1FCECED6FFD860DE20E802008005205F04620290
:4017C000630183018B04C003D603D802E4048D209920AE02B040E208EE0401011001000002000F405C300F4033310F4037320F4040330F400B420F4006430F4002600F40E1
:40180000030405060708090A0B0C0E0F101112131415161718191B1C1D1E1F2021222325262728292A2B2E2F3031323334354300F8B5C046F8BC08BC9E467047E9010000C5
:40184000B1080000F8B5C046F8BC08BC9E467047C101000068180000C000002088000000580000000000000000000000010000000000C05D80BB000030000000006CDC0214
:40188000F00000000404040000000000000000000000000000000000000000000000000000000000000000002E1800000000000000000000000000000000000000000000E6
:4018C00000000000000000000000000000000000000000000000000000000000000000000000000000000000E00000200000000000000000000000000000000000000000E8
:4019000000000000000000000000000000000000000000000000000000000000000000000000000000000000000000000000000000000000000000000000000000000000A7
:401940000000000000000000000000000000000000000000000000000000000000000000000000000000000000000000000000000000000000000000000000000000000067
:401980000000000000000000000000000000000000000000000000000000000000000000000000000000000000000000000000000000000000000000000000000000000027
:4019C00000000000000000000000000000000000000000000000000000000000000000000000000000000000000000000000000000000000000000000000000000000000E7
:020000040001F9
:0200000490303A
:020000004BC6ED
:0200000490402A
:4000000000000000000000000000000000000000000000000000000000000000000000000000000000000000000000000000000000000000000000000000000000000000C0
:400040000000000000000000000000000000000000000000000000000000000000000000000000000000000000000000000000000000000000000000000000000000000080
:0200000490501A
:0C0000000002112D11A1000111355D67F7
:0200000490600A
:0100000001FE
:00000001FF