:400000000040002011000000BD030000BD03000010B500F0DBF9C04610B51222124B1A60302000F081FC114A114B1A60E022D200104B1A60104A114B1A6082221206104B92
:400040001A608022D2020F4B1A6040220E4B1A600E49072000F09EFB072000F08FFB00220B4B1A6010BDC046300010400600008004010B400003014040FF00800000014080
:4000800008010B4000010B40280101407D0A00000C020B4010B572B600240FE027486200131959000B00411889881A5AC31858880004104300F04AF90134E4B2012CEDD914
:4000C0001E4801000C31343000F026F91C4A1D4B1A60EE2212021C4B1A6099231B041B4A13601B4A1360D82109061A4A11601A4A13601A490B783C22934314221343DBB22A
:400100000B70174A117816230B43DBB21370154A154B1A60F122154B1A60DB225203144B1A608122134B1A60D8221201124B1A60FFF772FF00F020F910BDC0467C1A00003A
:4001400000003303000202400003024000500F4020500F4028500F4030500F4001700F4000700F40B66D1B00080004400002044008020440180204400803044010B5064C6B
:400180002378002B07D1054B002B02D0044800E000BF0123237010BD4801002000000000601A0000084B10B5002B03D00749084800E000BF07480368002B00D110BD064BD9
:4001C000002BFBD09847F9E7000000004C010020601A0000C00000200000000010B500F0A5FD4005400D01F0A1FB064900F0C8FF054901F0DFF8054901F0F0F901F074FB69
:4002000040B210BD00E0FF440000B4420000344270B506000D00140000F038FA0D4800F0C7F92900300000F031FA002C0CDA2D2000F0CCF90135E9B2300000F027FA6042C1
:4002400080B200F041FA03E02004000C00F03CFA70BDC046641A000010B562B600F03AFD00F050FD00F002FA012000F0B3F90021002000F00BFA254800F09AF900210120E5
:4002800000F004FA224800F093F90020FFF7A6FF204B18705B785BB298420FD01D4C6070A07801231843C0B2A07000F0D9F80122A25603210020FFF7ABFF02E00022154BAD
:4002C0009A700120FFF78AFF124B1870DB785BB298420BD00F4BD870997804220A439A70020003210120FFF793FF02E00022094B9A70084B987800F0B3F800F02DFD64205D
:4003000000F080FA00F064FDBFE7C046741A0000781A000064010020F0B50025002711E0BB00C658F3B2FF22964308E06A008A181478A419527822700135013BDBB2002B94
:40034000F4D10137042FEBD9F0BDC04610B50A00002101F07DFB10BD064B1B68002803D080221206134301E05B005B08014A13607047C04680033A4010B50323094A136009
:40038000094A136080221206084B1A608123084A1360084A13600022074B1A600120FFF7DBFF10BD300030403000314000003A4000033A4040033A40000E3F4010B501F0DE
:4003C0001BFB03680C2B00D1FEE7FEE770B50F4E0F4D13E029686B68AC68002202E001C901C30432A242FAD1E868002202E0002102C304328242FAD11035013E002EE9D17F
:4004000001F000FBFFF728FFFEE7C04601000000E81B000010B50E4A136801218B43136000230AE0032B03D89A000A49505800E009489900094A885001332F2BF2D9FFF7DA
:4004400029FE034A116801230B43136010BDC0460000104000000000BD03000000000020014B18707047C04670000F4010B50B4C226860239A4322602268513B9A4322605A
:40048000226810230343D8B210432060012000F08BFA236810229343236010BD0000044070B505000E4C22682023134323602368402293432360002000F076FA23680F2273
:4004C00093432360226810232B43D8B210432060012000F069FA236810229343236070BD00000440F8B5274A13687F218B43136025490B681B0B1B03244803430B601368E9
:4005000020218B431360116840230B431360CA277F00002000F048FA1A4C2368102633432360012000F040FA194B1D682368B3432360002000F038FA08231D4023683343B7
:400540002360012000F030FA2368B3432360002D02D10A2000F028FA013F002D01D0002FD7D1084B1A6840218A431A601A683F318A431A60044A13681B0B1B0305490B4309
:400580001360F8BD00000440080004404902000004000440B60D000010B50400FFF7A2FF2009FFF77DFF0F202040FFF779FF10BD70B505000078012404E0FFF7EDFF285D56
:4005C0000134E4B20028F8D170BDC04610B5FFF7E3FF10BD10B50400FFF784FF2009FFF745FF0F202040FFF741FF10BD10B5282000F008F90320FFF739FF052000F002F90C
:400600000320FFF733FF0F2000F0FCF80320FFF72DFF012000F0F6F80220FFF727FF052000F0F0F80620FFF7D5FF0E20FFF7D2FF2C20FFF7CFFF0820FFF7CCFF0120FFF7E8
:40064000C9FF0C20FFF7C6FF0320FFF7C3FF052000F0D8F810BDC04610B50C20FFF7BAFF0122014B1A7010BD6801002010B5064B5B78002B04D1FFF7B9FF0122024B5A7078
:40068000FFF7EAFF10BDC0466801002010B501280BD0002804D002280CD003280FD012E08039C8B2FFF796FF0DE04039C8B2FFF791FF08E06C39C8B2FFF78CFF03E02C3944
:4006C000C8B2FFF787FF10BD30B585B00400002201AB9A7209250EE00A21200000F060FCC9B2303101AB59550A21200000F0D2FB0400013DEDB2092CEED80A21200000F037
:400700004FFCC9B2303101A841554019FFF750FF05B030BD00230AE00D4A12683F210A400C49C95C8A4201D1033303E001332D2BF2D9032308490868084A02400A60084ACC
:40074000944663441B78DBB2064A13607047C0462CFF0B40C41A000000002240FFFFFFBFCDF1FF0F28FF0B40034B18688023DB05184000D001207047000022401F2318405B
:400780001E3B8340014A13607047C04600E100E001BE704770B504000D001F2802D90020FFF7F6FF1034A40080239B059C4664442068256070BDC04670B504000E000329B0
:4007C00002D90020FFF7E4FF1F2C02D90020FFF7DFFF03252540ED00063500F02AFBA408A400074B9C46644421680323AB4099430B003100A9401943216000F01EFB70BD67
:4008000000E400E010B5040006E0084B586800F007FB074B9C46644480231B029C42F4D8024B9868604300F0FBFA10BDC40000200080FFFF70B582B000F0CAF800285DD098
:4008400000F0F7FA050000230AE02D4A12683F210A402C49C95C8A4201D1033303E001332D2BF2D903230021274A1160274A1268D20606D1254802681F318A4313390A43F2
:400880000260234C2168234A1140234A5A438023DB019C466244D20B013A5205520D0B001343A0225203134323601C4B1B680193302000F0C5FA1A4A13688021C9050B43D7
:4008C00013602668174B1E40002407E00120FFF799FF1034A30533430D4A1360EE2CF5D90120FFF78FFFFF239B051E43084B1E60019A0A4B1A60280000F09FFA02B070BDD6
:400900002CFF0B40C41A000028FF0B4034FF0B400800224000F800C040420F003000104000002240FFFF3FC030B587B0040000F080FA0500FFF718FF002803D0FFF7EAFE6C
:40094000012100E00021104B1B6800930F4B1B680193033C0E4B1B5D02930E4B1B68039304AA0D4B04936B4605930C4B1A600C480C4A10601B68012901D1FFF75BFF280093
:4009800000F05BFA07B030BD08010B4000010B40C41A000030001040B6EA000008001040170000800400104010B5034B1B7B584300F036FA10BDC046C4000020034B186884
:4009C000C0231B02184000D00120704700010B40034B1B68002B01DA012000E0002070470000224010B500F024FA044A1368C02109020B43136000F020FA10BD00010B402E
:400A000010B500F016FA08490A68084B1A408024E40122430A600A6813408022120213430B6000F00AFA10BD00010B40FF3FFFFF70B5050000F0FDF90400FFF7BFFF0028B4
:400A400003D0FFF7DDFF012100E0002108482840084A1568084B2B40184310601368012901D1FFF7BFFF200000F0E7F970BDC0460404040010020B40FBFBFBFF10B5244BC3
:400A80001B685B0715D5234B5B685B070ED5224B596A042001401F4C62688A4362605A6A82435A629B69002B00D098470420FFF7BFFF174B1B685B0518D5164B5B685B05E7
:400AC00010D5154B596A8022D2001140114842688A434260596A114A0A405A62DB69002B00D098478020C000FFF7A2FF084B1B685B030CD5074B5B685B0304D5064B1B6A47
:400B0000002B00D098478020C002FFF791FF10BD10020B40D80000206C010020FFFBFFFF10B503211020FFF747FE42491020FFF731FE0322404B1A60404B1B68002B01DADA
:400B40003F4900E03F49404A13680B4313603F4A3F4B1A603F4A404B1A6000233F4A13603F4A40490A6040490A60404A116880204002014311603E490A6802430A603D4A4D
:400B800013603D4A136001223C4B1A603C4A11683C4B0B40802189050B431360002445E03949A2005058DC239B0103400919097A0B4336498C4662441360C30707D52D4977
:400BC0000A680123A3401B041B0C13430B60A3002D4A9B589B0707D527490A680123A3401B041B0C13430B60A300274A9B589A0502D58020400001E080204001DB0504D423
:400C000063000021224A995203E063000021204A9952204B5843204B9C4660441F4900F0C3F900B2A2001E4BD0500134012CB7D910BDC046110E000020003A4080033A40BA
:400C4000702010107020001000003A408C00008004003A400000FF0718003A401C003A400400040010003A4014003A4000033A4040033A4028023A4038023A4018023A40AC
:400C800030003A40FEFFFFDFF41A000080003A40A801002010270000E40C0000C8190000A001002010B5094B1B68002B0CDB084B1B68002BFBDB054A1368802109060B43C8
:400CC00013600A20FFF770FE10BDC04600003A4008023A4010B5064B1B78002B04D1FFF71FFF0122024B1A70FFF7DCFF10BDC04694010020024A13685B005B081360704763
:400D000000003A40034A1368802149020B4313607047C04604003A40024A1168024B0B401360704704003A40FFFFFEFF10B50400012802D90020FFF72BFD012C07D8A400CE
:400D4000044B9C46644420680004000C00E0002000B210BD80013A4010B5184A13685B005B0817494B601368802109060B431360144B1B68002B1DDA134B1B68DB0303D596
:400D800003220F4B1A7002E001220D4B1A70FFF7C3FFFFF7AFFF0B4B1B68DB020DD5094A11680A4B0B401360054A117804230B43137002E00022024B1A7010BD30003A404E
:400DC0009801002000003A4004003A40FFFFEFFF10B50C4B0C4A596811601B78002B0FD05B0705D5094A1368802149030B431360FFF758FF034B1B789B0701D5FFF782FF40
:400E000010BDC0469801002030003A4000003A40014B1A681A60704710023A40000000000230800803D00138FDD1C046C046C0467047EFF3108072B6704780F31088704707
:400E400070B50400FFF7F5FF0500102C05D8104A136803218B43136016E0202C07D80C490B6803229343023A13430B600CE0302C07D807490B6803229343013A13430B6045
:400E800002E00020FFF784FC2800FFF7D6FF70BD30001040002243088B4274D303098B425FD3030A8B4244D3030B8B4228D3030C8B420DD3FF22090212BA030C8B4202D362
:400EC0001212090265D0030B8B4219D300E0090AC30B8B4201D3CB03C01A5241830B8B4201D38B03C01A5241430B8B4201D34B03C01A5241030B8B4201D30B03C01A52412C
:400F0000C30A8B4201D3CB02C01A5241830A8B4201D38B02C01A5241430A8B4201D34B02C01A5241030A8B4201D30B02C01A5241CDD2C3098B4201D3CB01C01A5241830940
:400F40008B4201D38B01C01A524143098B4201D34B01C01A524103098B4201D30B01C01A5241C3088B4201D3CB00C01A524183088B4201D38B00C01A524143088B4201D357
:400F80004B00C01A5241411A00D20146524110467047FFE701B5002000F0F0F802BDC0460029F7D076E7704703460B437FD4002243088B4274D303098B425FD3030A8B42B8
:400FC00044D3030B8B4228D3030C8B420DD3FF22090212BA030C8B4202D31212090265D0030B8B4219D300E0090AC30B8B4201D3CB03C01A5241830B8B4201D38B03C01A40
:401000005241430B8B4201D34B03C01A5241030B8B4201D30B03C01A5241C30A8B4201D3CB02C01A5241830A8B4201D38B02C01A5241430A8B4201D34B02C01A5241030AC4
:401040008B4201D30B02C01A5241CDD2C3098B4201D3CB01C01A524183098B4201D38B01C01A524143098B4201D34B01C01A524103098B4201D30B01C01A5241C3088B4286
:4010800001D3CB00C01A524183088B4201D38B00C01A524143088B4201D34B00C01A5241411A00D201465241104670475DE0CA0F00D04942031000D34042534000229C46D8
:4010C00003098B422DD3030A8B4212D3FC22890112BA030A8B420CD3890192118B4208D3890192118B4204D389013AD0921100E08909C3098B4201D3CB01C01A52418309AA
:401100008B4201D38B01C01A524143098B4201D34B01C01A524103098B4201D30B01C01A5241C3088B4201D3CB00C01A524183088B4201D38B00C01A5241D9D243088B42BE
:4011400001D34B00C01A5241411A00D20146634652415B10104601D34042002B00D54942704763465B1000D3404201B5002000F005F802BD0029F8D016E770477047C0468D
:40118000F0B5564644465F464D46F0B444024600C70F83B08846650A360EBA463DD0FF2E22D00023EC00802599469B46ED0425437F3E43465C025800DB0F640A000E984639
:4011C00036D0FF2830D080230021E400DB041C437F38301A0190484642460843724E800030587A4013008746002D44D108239946063B9B46DDE70122FF2000241A4064022F
:40120000C305640AD2071C431443200003B03CBC90469946A246AB46F0BD002D20D104239946033B9B46C4E7002C17D1022102E0002C0AD10121321A01924A4643460A436E
:401240005A48920082587B409746200000F0B6FB431F76309C4040420021BAE70321B8E7280000F0ABFB431F9D4000237630464299469B469DE70C239946093B9B4698E7D8
:4012800080240022E403FF20B9E70024C2468B465A465346022AAED0032A7DD0012A31D1012200201A400024A9E70122101A1B2856DD1A4000200024A1E78023DB031D4221
:4012C0004BD18023DB032B435C02640A3A00FF2095E76D016001854230D2019A0024013A01921B220127290064006D00002901DBA84201D82D1A3C43013A002AF3D16A1E7F
:4013000095412C4301987F300028CEDD620704D00F222240042A00D00434220103D5244A019814408030FE2800DD64E70122A401640AC0B21A4062E72C00A9E72D1A1A2269
:401340000124CFE76B02BCD500248023DB031C436402640A4246FF2051E71C42B3D1F4E721002022C140101A8440621E94410C43620704D00F222240042A00D004346201C1
:4013800004D5012201201A40002438E70122A401640A1A40002032E78023DB031C436402640A5246FF202AE7001B0000401B0000FFFFFFF7F0B557464E4645464300E0B48C
:4013C00046028846760A1F0EC40F002F47D0FF2F25D0002380259A469946F600ED042E437F3F434642465D02D20F5B006D0A1B0E904640D0FF2B39D080220020ED00D20467
:4014000015437F3BFB1842465746591C62408C4607430F2F5CD86F49BF00C9598F46002E45D108239A46063B9946DAE7424602282DD0032800D1C3E0012800D0A2E0002531
:4014400000260240D4B27602ED05760A2E43E407264330001CBC90469946A246F0BD002E1AD104239A46033B9946BAE72A00511E8A41901CC6E70120002DC3D0280000F0E9
:401480009DFA431F76309D4043420020BAE70124FF2514400026D6E7300000F08FFA431F9E400023763047429A46994699E70C239A46093B994694E780260024F603FF25DC
:4014C000C1E735004846B2E7350022004846AEE72904090C0800370C3604360C2C0C7943704367437443060C64183619B14203D980214902884647440004000C3104091806
:401500008D01681E8541890E2943350CED19AD010D43290104D5012369081D4063460D4319007F31002925DD680704D00F202840042800D00435280103D5274980330D4027
:401540001900FE29A3DC0124AD016E0A1440CDB279E78020C003064207D0054205D128434602760A4446FF256DE706437602760AFF2568E70124611A1B2905DD1440002567
:40158000002660E76346CBE72E002023CE40591A8D406B1E9D412E43730704D00F233340042B00D00436730104D5012401251440002648E70124B601760A1440002542E761
:4015C00080260124F6032E437602760A1440FF2539E7C046801B0000FFFFFFF7F8B54A024E0043024400240EC50F9B09360EC90F9209FF2E00D183E001204140A01BA942B7
:401600005CD0002800DC95E0002E1CD1002A00D081E05A0704D00F221A40042A00D004335A013BD50134FF2C00D191E001209B015B0AE4B205405B02E4055B0AED0723438B
:401640002B431800F8BDFF2CE3D08021C9040A431B2800DD90E016002021C640081A8240511E8A4132439B1A5A0115D59B019E09300000F0A3F90538864084426CDC041BED
:40168000330020200134E340041BA640721E964100243343BDE70D005A07BCD1DF0801231D40FF2C33D1002F00D190E08022D20313003B435B025B0AFF24BCE700284FDDCF
:4016C000002E2ED0FF2CA4D08025ED042A431B2800DD97E016002025C640281A8240501E824132439B185A01D5D50134FF2C6DD001227B481A405B08034013430D0088E76D
:40170000002A00D07AE777E7031EC5D100257B025B0AE4B28FE701380028A4D0FF2C97D177E7002A00D174E701380028DAD0FF2CCDD16EE7002821D1601CC0B2012858DD7B
:4017400080279E1AFF0437402FD0D61A0D008FE701231D4000236EE7624B241A334058E7002851D1601CC6B2012E33DDFF282DD09B185B0804004CE7012274E7002C1AD006
:40178000FF2E1FD08024E404404223431B2800DD96E01D002024C540201A8340581E83412B43D31A34000D005EE7002E00D05FE700250024ABE7002B44D0C0430028F0D03C
:4017C000FF2EE3D11300FF240D0022E70D00FF24002330E7002C5DD1002B7DD0002A00D117E79B185A0100D456E73E4A040013400FE7002C1ED1002B2FD1002A65D01300DB
:401800000D0006E701226DE7002C1FD1002B59D0C04300280BD0FF2E4FD01B285EDC1D002024C540201A8340581E83412B439B18340058E7002B1CD1002A49D013000D004C
:40184000FF24E6E6130034000D00E2E6FF2E34D08024E40440422343DFE7002A00D1D8E68027981AFF04074000D14DE7D31A0D00CFE6FF24002A00D1CBE68020DB08C003CD
:40188000034204D0D208024201D113000D00DB00FF24BEE6002B10D0FF24002A00D1B8E68020DB08C003034203D0D208024200D11300DB000D00FF24ABE61300FF24A8E6D6
:4018C00001236EE713003400A3E6002700251EE780270025FF03E9E613009AE60123A6E7FFFFFF7DFFFFFFFB4302590A4300C20F1B0E00207E2B0EDD9D2B0DDC802000040D
:401900000143952B0BDC9620C31AD9400B005842002A00D118007047034BD018FBE7963B99400B00F3E7C046FFFFFF7F70B5002830D0C317C5185D40C40F280000F03EF8B6
:401940009E231B1A962B0DDC9622D21A95406A02520AD8B25202C005520AE40702432243100070BD992B19DC9922D21A9540124A2A40690704D00F210D40042D00D00432C2
:40198000510103D50C4B1A409F231B1A9201520AD8B2DFE7002400200022DBE705222E00121AB921D6402A00C91A8A40551EAA4135001543DBE7C046FFFFFFFB1C2101239A
:4019C0001B04984201D3000C10391B0A984201D3000A08391B09984201D30009043902A2105C40187047C04604030202010101010000000000000000014B18687047C046D2
:401A0000400100200E4B70B500251E000D4CE41AA410A54204D0AB00F35898470135F8E700F0D0F8084B00251E00084CE41AA410A54204D0AB00F35898470135F8E770BDAE
:401A4000D01B0000D01B0000D01B0000D81B000003008218934202D019700133FAE770470000000020202020202020202020202020000000583A2000593A200000300F4095
:401A8000000400400F4000045B045F0169106A086B018604E408AF01B110E8025801602065408540D603D802AC01B020E801000002300F4005310F4003330F4006420F402A
:401AC00003430F40030405060708090A0B0C0E0F101112131415161718191B1C1D1E1F2021222325262728292A2B2E2F30313233343500000000000000100000000700004A
:401B0000D2120000F6110000B41200008C120000B412000080120000B41200008C120000F6110000F6110000801200008C120000381300003813000038130000BA120000AF
:401B4000F6110000F6110000A01200008A120000A012000080120000A01200008A120000F6110000F6110000801200008A1200003813000038130000381300004413000003
:401B8000D01400002E1400002E1400002C140000C2140000C2140000B81400002C140000C2140000B8140000C21400002C140000C8140000C8140000C81400005215000012
:401BC00043000000F8B5C046F8BC08BC9E467047A501000015040000F8B5C046F8BC08BC9E4670477D010000F81B0000C000002088000000680000000000000001000000F5
:401C00000000C05D80BB000030000000006CDC02F0000000040404000000000000000000000000000000000000000000000000000000000000000000C01B000000000000FB
:401C40000000000000000000000000000000000000000000000000000000000000000000000000000000000000000000000000000000000000000000E00000200000000064
:401C80000000000000000000000000000000000000000000000000000000000000000000000000000000000000000000000000000000000000000000000000000000000024
:401CC00000000000000000000000000000000000000000000000000000000000000000000000000000000000000000000000000000000000000000000000000000000000E4
:401D000000000000000000000000000000000000000000000000000000000000000000000000000000000000000000000000000000000000000000000000000000000000A3
:401D40000000000000000000000000000000000000000000000000000000000000000000000000000000000000000000000000000000000000000000000000000000000063
:020000040001F9
:0200000490303A
:02000000041BDF
:0200000490402A
:4000000000000000000000000000000000000000000000000000000000000000000000000000000000000000000000000000000000000000000000000000000000000000C0
:400040000000000000000000000000000000000000000000000000000000000000000000000000000000000000000000000000000000000000000000000000000000000080
:0200000490501A
:0C0000000002112D11A10001113615BCE9
:0200000490600A
:0100000001FE
:00000001FF